:020000040800F2
:10000000A09F002041AB00080BA900080DA9000823
:100010001FA9000823A9000827A900080000000064
:100020000000000000000000000000002BA90008F4
:100030002DA900080000000037D100089BD300085C
:100040005BAB00085BAB00085BAB00085BAB000878
:100050005BAB00085BAB00085BAB00085BAB000868
:100060005BAB00085BAB00085BAB00085BAB000858
:100070005BAB00085BAB00085BAB00085BAB000848
:100080005BAB00085D4300085BAB00085BAB00089E
:10009000930A00085BAB00085BAB00085BAB000891
:1000A0005BAB00085BAB00085BAB00085BAB000818
:1000B000456D00087B1800085BAB00085BAB0008CF
:1000C0005BAB00085BAB00085BAB00085BAB0008F8
:1000D0005BAB00085BAB0008834300085BAB000828
:1000E0005BAB00085BAB00085BAB00085BAB0008D8
:1000F0005BAB00085BAB00085BAB00085BAB0008C8
:100100005BAB00085BAB00085BAB00085BAB0008B7
:100110005BAB00085BAB00085BAB00085BAB0008A7
:100120005BAB00085BAB00085BAB00085BAB000897
:100130005BAB00085BAB00085BAB00085BAB000887
:100140006F0E0008B71100085BAB00085BAB00083E
:100150005BAB00085BAB0008F91A00085BAB00085A
:100160005BAB00085BAB00085BAB00085BAB000857
:100170005BAB00085BAB00085BAB00085BAB000847
:100180005BAB00085BAB0008DFF80CD00DF04EFD58
:1001900000480047BD030008A09F002030BF72B692
:1001A000704762B6704780F3088870470FE0F949DE
:1001B000F94801F025FDF948D0F8DC00F84948601D
:1001C000F648D0F89C01886004200CF0BDFEEEE7F4
:1001D00079E0F448007828B9082001F00DFA01F020
:1001E00042FA6CE01020F0494883EE4840684468C9
:1001F000002560E0207800F00F0018B90A2001F017
:10020000FBF946E0207800F00F00012826D14020BD
:10021000E54948832178C1F3031001F0EDF941F27B
:1002200088300CF091FE208800F47060B0F5007FFB
:1002300006D10B2001F0E0F941F288300CF084FE89
:10024000208800F47060B0F5807F22D10C2001F08E
:10025000D3F941F288300CF077FE1AE0207800F0F4
:100260000F00022808D12020CF4948832178C1F30C
:10027000031001F0C1F90CE0207800F00F00032812
:1002800007D18020C84948832178C1F3031001F0C9
:10029000B3F964684FF47A700CF056FE4020C249FE
:1002A000088320200883802008834FF47A700CF0A4
:1002B0004BFE681CC5B2BB480078A8429ADC4FF4DC
:1002C0007A700CF041FE84E721E0B84800780028FD
:1002D00010DD4FF48070B44908834FF47A700CF04D
:1002E00033FE4FF48070B0494883B0480078401E18
:1002F000AE490870AE480078012804D100F05BFADE
:100300000020AB4908704FF47A700CF01DFEDCE75A
:1003100070B5054600240DE0012104EB041000EB4C
:100320004000A44A02EB800080F839100A200CF04B
:100330000BFE641C082CEFDB0E200CF03DFD70BDA5
:1003400005E004F027FF4FF47A700CF0FDFDF8E7AC
:1003500070B50446002500BF0DF035F80CF0CAFE5C
:10036000054600200CF05FF8934908600A23934A81
:10037000002193480CF0A2FA0E23924A00219248E1
:100380000CF09CFA0823914A002191480CF096FA4F
:100390001123904A002190480CF090FA0C238F4AC8
:1003A00000218F480CF08AFA032000F0FEF90520A6
:1003B0000CF002FD28460CF0A1FE70BD10B540F611
:1003C000B83000F0EDFB4FF4806101F00702854B7F
:1003D00018684FF6FF031840834B034343EA02209B
:1003E000804B186000BF8148006840F007007F49DB
:1003F000086001F02DF901F0DFF800F0CBF900F012
:1004000041FA00F0E9FB01F009FB03F041FF01F0C4
:1004100070F906F06BFB01F003FA00F0CCF901F083
:10042000E7FB0221724803F04BFD0AF0D3FC0523E1
:10043000704A002170480CF041FA0AF0F2FD0020E9
:1004400010BD16E001240EE0E0B203F0E7FC40F23C
:10045000DC500CF079FD204602F03FFF40F2DC500A
:100460000CF072FD641C022CEEDB4FF47A700CF081
:100470006BFDE7E763E04F48007801285CD14D4809
:1004800090F8CC00012857D14A48B0F91400002850
:1004900003DD4848B0F9140003E04648B0F9140001
:1004A00040423C2821DB4348B0F91400002803DD1A
:1004B0004048B0F9140003E03E48B0F9140040424F
:1004C000962812DC3B48B0F91400002803DD3948B7
:1004D000B0F9140003E03748B0F9140040423C384A
:1004E00001B23448A0F8D01026E03248B0F9140028
:1004F000002803DD2F48B0F9140003E02D48B0F9BF
:1005000014004042962804DD5A212A48A0F8D01051
:1005100012E02848B0F91400002803DD2548B0F99E
:10052000140003E02348B0F9140040423C2803DAE9
:1005300000212048A0F8D01032200CF005FD9AE7E9
:1005400091E02E48007801287ED11A4981F8640292
:10055000032000F02AF94FF48071294808F070FE5A
:1005600001200E4981F8C0000A200CF0EDFC0120AA
:100570000A4981F8800147F230500CF0E5FC0D4843
:10058000B0F8680200F5347001B20A48A0F86812A9
:1005900000244BE0E048002000680040F8530020B1
:1005A000542D00206C0300200000024004000020B5
:1005B00074030020144B0020000000205410002081
:1005C000410300085421002011030008542A002090
:1005D000C902000854270020D1010008542000203F
:1005E000AD0100080CED00E00000FA0530380240D3
:1005F00048390020540800205103000875030020EA
:10060000000802405A485B494860042008720020F4
:100610004872022088724620C8724E2155480173E4
:100620000146554807F0E6FF601CC4B2032CE9DB25
:1006300044F620600CF088FC4FF480714F4808F0BD
:10064000FDFD00204E4900E00AE081F8C0000A20CC
:100650000CF07AFC00204A4981F880014949087071
:1006600064200CF071FC6CE780E04748B0F914009E
:1006700000EE900AF8EEE00AB0EE600A012006F003
:1006800097F94148B0F9640000EE900AF8EEE00AEC
:10069000B0EE600A022006F08BF93948D0F89C01D0
:1006A00000EE900AF8EEE00AB0EE600A032006F0D1
:1006B0007FF93348D0ED690AB0EE600A042006F0F5
:1006C00077F93248B0F9B00100EE900AF8EEE00A8E
:1006D000B0EE600A052006F06BF92C48B0F9AE01C7
:1006E00000EE900AF8EEE00AB0EE600A062006F08E
:1006F0005FF92648B0F97C0200EE900AF8EEE00AB5
:10070000B0EE600A072006F053F92048B0F97A02EB
:1007100000EE900AF8EEE00AB0EE600A082006F05B
:1007200047F91A48B0F9480300EE900AF8EEE00ADB
:10073000B0EE600A092006F03BF91448B0F9460310
:1007400000EE900AF8EEE00AB0EE600A0A2006F029
:100750002FF90A2006F07DF9044621460C4801F0E5
:10076000B4F94FF4FA700CF0EFFB00BF7DE7000026
:1007700016131405582A00200064004000080240A7
:10078000F853002075030020EC510020144B00208A
:100790009C5300201CB5002000900346012211024A
:1007A00001902F4807F0BEFB1CBD2E49097801447B
:1007B0002C4A1170704730B52DED048B83B00120A9
:1007C000032100230222CDE900100102244807F092
:1007D000A9FB01220821224807F084FB00242CE019
:1007E000214951F8240042F2CF0106F045FB1E4991
:1007F00051F824000CF0D6FF41EC190B9FED1B0BB8
:1008000053EC102B0CF0EDFE41EC180B0CF0FAFF42
:1008100005462946174809F0B4FA174901EB840147
:1008200091ED000ADFED150A20EE200ABCEEC00AA9
:1008300010EE100A0CF088FB641C1148006884421A
:10084000CEDB012000210B460246CDE9001001025B
:10085000034807F067FB03B0BDEC048B30BD00001C
:1008600000000240040000200800002000000000FA
:100870000000E03F00000140B80100200000FA4500
:100880006403002000B58BB00121480608F0D3FEB8
:100890000121084608F09CFE09220B21B84808F007
:1008A000DCFC09220C21B64808F0D7FC02208DF8A8
:1008B0001C004FF4C050069006A9B14808F042FC55
:1008C00000208DF826008DF827008DF828008DF87F
:1008D00029008DF82A008DF82B008DF822008DF864
:1008E000230008208DF8240003208DF82500ADF8A2
:1008F000200008A9A34807F004FD02208DF812008B
:1009000000208DF8130001208DF8140040F68A10A5
:10091000ADF808004FF42960ADF80A0040F2FF700E
:10092000ADF80C004FF68070ADF80E000020ADF869
:10093000100001208DF8150002A807F06CFD1420AE
:100940008DF8040003208DF8050000208DF80600C6
:1009500001208DF8070001A807F04FFC01220221B9
:10096000884808F057F80BB000BD70B504462079F0
:1009700000F00F0684483043844948600420087220
:100980000020487236B1022E25D0062E2ED0072E1A
:100990006DD163E0002009E0002100EB001202EBC2
:1009A00042027B4B03F82210411CC8B20828F3DB3B
:1009B00000250DE0002005EB4501764A02EB811190
:1009C000087000220221284602F066FD681CC5B2AC
:1009D000052DEFDB4CE0A07A6C498872A27A04F115
:1009E0000B016A480B300CF021FD41E0A07A674909
:1009F0008872E07A58280FD1207B5A280CD1E07AEF
:100A0000C872217B61480173614890F8CC115F483E
:100A100041730021817320E0E07A46280AD1207BCF
:100A2000532807D1A27A04F10B0158480B300CF07F
:100A3000FDFC12E0E07A4A280FD1207B44280CD13B
:100A4000E07A5249C872217B50480173504890F8AF
:100A500064134E4841730021817309E002204B4921
:100A60008872E07AC872217B4848017300E000BFB9
:100A700000BF4649434807F0BDFD042805D146485C
:100A80000088401C4449088002E000204249088058
:100A900070BD10B586B002213A4808F023F800284E
:100AA0006CD001AA0021374807F099FE0221354891
:100AB00008F0B3F89DF80C0004285ED19DF80D00F5
:100AC00000285AD135490298884203D101A8FFF77E
:100AD0004CFF52E03149C91D029888424DD19DF822
:100AE0000F005A2820D19DF8100053281CD19DF8E2
:100AF000110008B1012000E00020264981F84002E1
:100B0000BDF8124000EE104AB8EE400AF2EE040AB8
:100B100080EE201ABDEEC10A10EE100AC1F84402A0
:100B200001A8FFF722FF28E09DF80F00462824D1F6
:100B30009DF810004A2820D19DF8110008B101202D
:100B400000E00020124981F8FC03BDF9124000EEDC
:100B5000104AB8EEC00AF2EE040A80EE201AB1EE96
:100B6000410ABDEEC00A10EE100A01B20848A0F812
:100B7000001401A8FFF7F9FE00BF00BF06B010BDCA
:100B80000000024000640040101314056C2A00208D
:100B9000144B0020F853002068030020504131011D
:100BA00010B5002107E04AF2104200BF131EA2F167
:100BB0000102FBD1491C8142F5D310BD10B50021C3
:100BC00006E0282200BF131EA2F10102FBD1491C3E
:100BD0008142F6D310BD000000B58BB0012188061C
:100BE00008F029FD0121084608F0F2FC02208DF8EA
:100BF00018006020059005A9FE4808F0A3FA092214
:100C00000521FC4808F029FB09220621F94808F0D3
:100C100024FB40208DF8280002208DF829000020B8
:100C20008DF82A0001208DF82B000AA807F0E5FABC
:100C300041208DF8280002208DF8290001208DF830
:100C40002A008DF82B000AA807F0D7FA00208DF8AB
:100C500022008DF823008DF824008DF825008DF8F2
:100C600026008DF827008DF81E008DF81F00082043
:100C70008DF8200003208DF82100ADF81C0007A995
:100C8000DD4807F03EFB0E208DF80E0001208DF8A8
:100C90000F0000208DF8100044F22000ADF8040091
:100CA00044F24000ADF8060044F26000ADF80800E0
:100CB0004FF48140ADF80A000020ADF80C0001208F
:100CC0008DF8110001A807F0A6FB0F208DF80E008B
:100CD00001208DF80F0000208DF8100044F2A000D4
:100CE000ADF8040044F2C000ADF8060044F2E000A4
:100CF000ADF808004FF48240ADF80A000020ADF8CE
:100D00000C0001208DF8110001A807F084FB1020D1
:100D10008DF80E0001208DF80F0000208DF81000D6
:100D200045F22000ADF8040045F24000ADF80600A1
:100D300045F26000ADF808004FF4A140ADF80A009C
:100D40000120ADF80C008DF8110001A807F063FB3D
:100D500011208DF80E0001208DF80F0000208DF875
:100D6000100045F2A000ADF8040045F2C000ADF857
:100D7000060045F2E000ADF808004FF4A240ADF8DF
:100D80000A000120ADF80C008DF8110001A807F051
:100D900042FB12208DF80E0001208DF80F0000207C
:100DA0008DF810004FF48150ADF804004FF48250DC
:100DB000ADF806004FF48350ADF808004FF48450AE
:100DC000ADF80A000120ADF80C008DF8110001A863
:100DD00007F021FB13208DF80E0001208DF80F0085
:100DE00000208DF810004FF48550ADF804004FF44A
:100DF0008650ADF806004FF48750ADF808004FF468
:100E00008850ADF80A000120ADF80C008DF81100F3
:100E100001A807F000FB14208DF80E0000208DF8CB
:100E20000F0001208DF810000020ADF804004FF4F1
:100E30009040ADF806004FF6FF70ADF808004FF493
:100E40007840ADF80A000120ADF80C008DF81100D3
:100E500001A807F0E0FA01220221674807F0DAFD55
:100E600001221021644807F0D5FD0BB000BD10B57C
:100E700086B00221604807F035FE00287DD001AA27
:100E800000215D4807F0ABFC02215B4807F0C5FE7E
:100E90000198B0F5007F71D90198B0F5027F6DD847
:100EA0009DF80D00002869D10198401EC4B20CF0D5
:100EB000FBF804EB041101EB4101504A02EB810104
:100EC000C1F8B40004A9481E00F06EFC0DF1120137
:100ED000481E00F069FC05A9481E00F065FCBDF83D
:100EE0000F1004EB041000EB4000444A02EB8000BA
:100EF0000184BDF8111004EB041000EB400002EB7C
:100F000080000183BDF8131004EB041000EB4000D7
:100F100002EB8000C1829DF8151004EB041000EB79
:100F2000400002EB8000418304EB041000EB400022
:100F3000114601EB8000018C04EB041000EB400033
:100F400002EB8000008E081A01B204EB041000EBE3
:100F5000400002EB8000A0F8A81004EB041000EBA6
:100F60004000114601EB8000808A04EB041101EB84
:100F7000410102EB8101888401E009E107E104EB12
:100F8000041000EB4000114601EB8000C18A04EB25
:100F9000041000EB400002EB8000C18404EB04105D
:100FA00000EB4000114601EB8000018B04EB0410C4
:100FB00000EB400002EB8000018504EB041000EB25
:100FC0004000114601EB8000418B04EB041000EB64
:100FD000400002EB8000418504EB041000EB400070
:100FE000114601EB8000C16904EB041000EB4000E6
:100FF00006E000000004024000680040144B00209E
:1010000002EB8000C16204EB041000EB40001146CB
:1010100001EB8000018C04EB041000EB400002EBBC
:101020008000018604EB041000EB4000114601EB48
:101030008000B0F9A800002808DD04EB041000EBE4
:10104000400001EB8000B0F9A80009E004EB0410B7
:1010500000EB4000FE4901EB8000B0F9A8004042DF
:1010600041F2040188422CDD04EB041000EB400047
:10107000F74901EB8000B0F9A81004EB041000EB75
:101080004000F34A02EB8000B0F9A800002801DB21
:10109000012001E04FF0FF3004EB041202EB4202AA
:1010A000EB4B03EB8202B2F8BC2000FB121001B242
:1010B00004EB041000EB40001A4602EB8000A0F89D
:1010C000A81004EB041000EB4000E14901EB8000A4
:1010D000C16904EB041000EB4000DD4A02EB800024
:1010E000B0F9A800014404EB041000EB400002EB4F
:1010F0008000C16104EB041000EB4000114601EBDD
:101100008000C16804EB041000EB400002EB80009B
:10111000C069091A04EB041000EB400002EB8000E8
:10112000C0F8AC1004EB041000EB4000114601EBDA
:101130008000C06900EE100AB8EEC00ADFEDC50AF3
:1011400020EE200A04EB041000EB400001EB8000CD
:1011500090ED301AC0EE010A04EB041000EB4000E1
:1011600001EB8000B0F8BC0000EE100AB8EE400AB7
:1011700080EE801ABDEEC10A10EE100A00B204EB38
:10118000041101EB410102EB8101888200BF00BF25
:1011900006B010BD4168491C41600021017301691E
:1011A000491E0161818A491C1E2291FBF2F302FB58
:1011B00013118182704710B586B01021A64807F040
:1011C00091FC00287ED001AA0121A34807F007FB6B
:1011D0001021A14807F021FD10219F4807F05FFC76
:1011E0009DF80C0004286ED19DF80D000028FAD15E
:1011F00000900298C4B20BF057FF611E01EB410151
:10120000964A02EB8111C1F88C0009210298B1EBDA
:10121000102F7CD16946B7EE000A0DF10F0006F0E1
:101220006EFB601E00EB40008C4901EB801090F8D3
:10123000B80000EE900AF8EE600A80EE201ABDEECB
:10124000C10A10EE100A611E01EB4101834A02EB54
:101250008111C8616946B2EE040A0DF10F0006F073
:101260005EFB601E00EB40007C4901EB801080EDCE
:10127000090A6946B2EE040A0DF10F0006F04FFBB1
:10128000601E00EB4000754901EB801080ED0A0AFA
:101290000DF11601481E00F087FABDF8151004EB99
:1012A00044006E4A02EB8010018604EB44001146B4
:1012B00001EB8010018E04EB440002EB8010408EA5
:1012C000081A01E0ACE0AAE001B204EB440002EB32
:1012D0008010A0F8921004EB4400114601EB80103E
:1012E00090F8940060B1002104EB440002EB801000
:1012F00080F8941004EB440002EB8010A0F89210E8
:1013000004EB4400554901EB8010418E00E085E07C
:1013100004EB4400514A02EB8010418604EB440088
:10132000114601EB8010B0F99200002806DD04EBB5
:10133000440001EB8010B0F9920007E004EB440098
:10134000464901EB8010B0F992004042B0F5E16FE0
:1013500021DD04EB4400414901EB8010B0F992100B
:1013600004EB44003D4A02EB8010B0F992000028E3
:1013700001DB012001E04FF0FF30C0EB4012C2EB77
:101380000020A1EB001001B204EB4400334A02EB51
:101390008010A0F8921004EB4400304901EB80105B
:1013A000016A04EB44002D4A02EB8010B0F9920070
:1013B000014404EB440002EB8010016204EB4400A2
:1013C000114601EB8010816804EB440002EB8010B1
:1013D000006A091A04EB440002EB8010C0F8A01068
:1013E00004EB4400114601EB80104078B0B104EBEF
:1013F000440001EB801090ED0A0A04EB440001EB7D
:10140000801080ED260A04EB440001EB8010016A95
:1014100004EB440002EB8010C0F89C1000BF00BF3A
:1014200006B010BD70B5044604EB041000EB40009C
:10143000074901EB8000B0F90600002810DD04EB3D
:10144000041000EB400001EB8000B0F9060011E051
:10145000144B00200000B44300680040F853002003
:1014600004EB041000EB40004F4901EB8000B0F9A1
:101470000600404204EB041101EB41014A4A02EB31
:101480008101B1F8C410884220DD04EB041000EBA8
:101490004000114601EB8000B0F90600002801DB96
:1014A000012001E04FF0FF3004EB041101EB41019A
:1014B0003D4A02EB8101B1F8C410484301B204EB8C
:1014C000041000EB400002EB8000C18004EB04102C
:1014D00000EB4000344911F8200040B9002104EB32
:1014E000041000EB4000304A02EB8000C180042C65
:1014F00004DA4FF400702D49086003E040F2FF1059
:101500002A49086000202949487208720820887218
:1015100004F00B00450004EB041000EB40002249EE
:1015200001EB8000C18821480B30415302466B1CFF
:10153000D118501900F038F9032C01D0072C03D131
:101540001A491B4807F056F870BD70B505460C46A1
:101550004FF4823017494860042008720020487216
:1015600004208872C872012C06D18F2111480173A2
:101570004E214173857311E034B985210D48017303
:1015800046214173857309E0022C07D18E21094859
:1015900001734F21417357218173C5730549044875
:1015A00007F028F870BD0000144B0020802A0020AE
:1015B00000680040942A00201CB50121022008F098
:1015C00007F84FF44070009001208DF804000020CF
:1015D0008DF8060002208DF8050069461A4807F0CC
:1015E000B1FD4FF48071184807F028FE4FF40071E8
:1015F000154807F025FE1CBD70B50446112C00DD12
:1016000011241248055D00261AE04FF480710E483F
:1016100007F016FE05F0010028B14FF400710A48EA
:1016200007F00CFE04E04FF40071074807F008FED5
:101630004FF48071044807F001FE6D10701CC6B2B3
:10164000082EE2DB70BD0000000402408CEB0008B5
:101650001CB50020009003460122F02101901F4894
:1016600006F060FC1CBD10B510201C4948834FF4E7
:10167000FA600BF069FC2020184948834FF4FA60A7
:101680000BF062FC4020154948834FF4FA600BF0E0
:101690005BFC8020114948834FF4FA600BF054FC46
:1016A00010200E4908834FF4FA600BF04DFC202007
:1016B0000A4908834FF4FA600BF046FC40200749C2
:1016C00008834FF4FA600BF03FFC80200349088345
:1016D0004FF4FA600BF038FC10BD0000000002402F
:1016E00010B508200DF01CFA04460020606020466A
:1016F00010BD10B500F034FB05F0F6FB06F020F944
:10170000FFF7EEFF424948600120FFF74EF810BD99
:1017100070B506460C46354600E06D6815B1686840
:10172000A042FAD14CB16068686020460DF0D0F953
:1017300037480078401E3649087070BD02460B4697
:10174000114605E00888984201D10846704749686B
:101750000029F7D10020F9E72DE9F0410746884636
:101760003C4641462046FFF7E9FF08B1BDE8F0815D
:10177000002602E06468701CC6B225480078B042BA
:1017800001DD002CF6D16CB108200DF0C9F9054639
:10179000A5F800806068686065601D480078401C9E
:1017A0001B49087000BFE1E700220A7803780B703C
:1017B0000270704710B52DED028B044694ED000ABF
:1017C00010EE101A08460CF036F841EC180B9FED9D
:1017D000111BB0EE480AF0EE680A0DF06FF900EE4A
:1017E000100AB8EEC00A84ED000A94ED000AB5EEC6
:1017F000C00AF1EE10FA07D294ED000ADFED070AF5
:1018000030EE200A84ED000ABDEC028B10BD000012
:101810006C03002000000000008076400000B4430C
:101820001FB50121022007F006FF5320ADF8040088
:1018300040F2E73002900020ADF80C00ADF8060051
:1018400001A9724808F0AFF81D208DF800000120B2
:101850008DF8010000208DF8020001208DF80300B2
:10186000684606F0CAFC01221146684808F03CFDB3
:101870000121664808F020F91FBD70B501216348B9
:1018800008F049FD012875D101F05AFA002435E02D
:1018900004EB041000EB40005D4911F8200028B370
:1018A00004EB041000EB400001EB80004078F0B145
:1018B00004EB041000EB400001EB8000807801286D
:1018C00006D0022805D004280BD005280DD104E04D
:1018D0000CE020B200F029FD08E020B200F07EFD0F
:1018E00004E020B200F02FFF00E000BF02E020B2D1
:1018F00000F074FDE0B2FFF795FD641C082CC7DB17
:1019000001247BE004EB4400424901EB80100078A5
:1019100000286BD004EB440001EB8010407850B3FA
:1019200004EB440001EB8010C07806284DD2DFE8BC
:1019300000F0031223384C4704EB4401354A02EB14
:101940008111D1ED050AB0EE600A611CC8B2012117
:1019500005F017FE3AE004EB44012E4A02EB811138
:10196000D1ED030AB0EE600A611CC8B2012105F096
:1019700058FE2BE044E02AE004EB4402254B03EB45
:101980008212526804EB4403224D05EB831393F853
:10199000B83002FB03F1621CD0B2012205F0B4FBA7
:1019A00014E004EB44011B4A02EB8111D1ED290A3A
:1019B000B0EE600A611CC8B2012105F0EDFE05E041
:1019C000611CC8B205F031FD00E000BF15E004EB7A
:1019D0004401104A02EB8111D1ED290AB0EE600AF0
:1019E000611CC8B2012105F0D7FE06E0611CC8B237
:1019F00001219FED090A05F014FE641C032C81DB14
:101A00000121024808F098FC70BD0000000400406D
:101A1000144B0020F8530020000000001CB5404883
:101A2000006840F010003E4908603D4814380068E6
:101A300040F480003A491439086001200221002353
:101A40000A46CDE900104FF4C061364806F06AFA44
:101A500007220921334806F045FA07220A213148B6
:101A600006F040FA40F2D9202F4908814FF4037064
:101A700088810846008820F0200008800323252262
:101A80000121062006F0A0F94FF48070274B264A6A
:101A9000121D04210090264806F0DAF801221021D8
:101AA000234807F076FA032346220021072006F098
:101AB0008BF91D48808A40F080001B4988820846C7
:101AC000808940F4005088811CBD70B504460D46E5
:101AD0001848807D78B92A46214614480BF0A6FCA8
:101AE0002946134807F0E9F90121114807F0C4F924
:101AF00001201049887570BD10B50F490C4807F0DA
:101B000065FA01280AD10C49094807F02EFA0A495A
:101B1000074807F085FA00200649887510BD0000C7
:101B2000443802400000024000100140D42A002046
:101B3000B8640240A82A00200080002800228261A8
:101B40000160C26100230362436280ED010AC0EDBF
:101B5000020A80ED031AC0ED041A70470168826919
:101B6000891AC161C269016A511A00EE101AB8EEF1
:101B7000C00AD0ED010A20EE200A90ED021AC169D8
:101B800000EE901AF8EEE00A01EE200AC269016A3E
:101B9000022303FB1122416A114400EE901AF8EE71
:101BA000E00A90ED031A01EE200ABDEEC00A10EE25
:101BB000101A4161026A4262C26902627047000003
:101BC000014608884A88904201D1012070470020D0
:101BD000FCE701464888401C1E2290FBF2F302FB02
:101BE00013000A88904201D1012070470020FCE7D1
:101BF0000020524948800880514948800880704739
:101C000030B585B005460C4600204E490870204688
:101C1000FFF7D6FF18B101204B4948718BE02188AE
:101C2000201D00EB01100068B0F5806F09D2002084
:101C30008DF808002188201D00EB0110006800903D
:101C40001CE02188201D00EB0110006800F07040AE
:101C500058B12188201D00EB0110006820F0704170
:101C60002288201D00EB0210016004208DF808007E
:101C70002188201D00EB0110006801903348854247
:101C800005D101222D49324802F049FA04E002222E
:101C90002B49304802F043FA2188201D00EB011047
:101CA00000798DF80A0000208DF809009DF80A20BF
:101CB0002388201D00EB0310411D0DF10B000BF0DC
:101CC000B5FB2088401C1E2190FBF1F201FB1200A5
:101CD00020806946284606F08DFC17E019480078F8
:101CE000401C18490870084600780A280EDD17487D
:101CF000854205D118480068401C1749086004E077
:101D000016480068401C1549086005E069462846E9
:101D100006F070FC0428E1D000BF0F4800680528D9
:101D200002DB00200C4908600C480068052802DB33
:101D300000200A49086005B030BD000018450020A9
:101D4000FC4600207B030020A82A002000640040FD
:101D5000782D0020483900207C03002080030020DB
:101D600010B54FF40050FE4908809FEDFE0A08466A
:101D700080ED010A43F699100881B7EE000A084683
:101D800080ED030A4FF40050F74908809FEDF70AF1
:101D9000084680ED010A42F228300881B7EE000AB9
:101DA000084680ED030A0120F1490872887300207B
:101DB00008704FF4FA704881088280004882012040
:101DC000087348730020EB49486132200883C8201B
:101DD0004883002430E004EB041000EB4000E649A7
:101DE00001EB8000E3490968C0F8A010E1484168B0
:101DF00004EB041000EB4000DF4A02EB8000C0F867
:101E0000A41004EB041101EB410102EB810101F18B
:101E1000A8001422D74908310BF008FB04EB041189
:101E200001EB4101D44A02EB810101F18C00142243
:101E3000CF490BF0FBFA641C082CCCDBCE48803079
:101E4000C74C1ECC3C301EC00020CB49087001207E
:101E5000487005208870002088806421C648018170
:101E6000C180C168DFEDC51A9FEDC51ADFEDC50A57
:101E7000B1EE040A3C30FFF761FEBF48B0F908102C
:101E8000F7EE001A9FEDBE1ADFEDBF0AB2EE000AB0
:101E90006430FFF753FEBD48B34BD3E90041D3E9AB
:101EA0000223C0E90F41C0E911230020B24981F8A3
:101EB000CC000121B04880F8CD10052180F8CE106B
:101EC0000021A0F8D0106421A0F8D410A0F8D210FE
:101ED000D0F8D810DFEDA91A9FEDA91ADFEDA90AF5
:101EE000B1EE040A00F58470FFF728FEA248B0F9AD
:101EF000D410F7EE001A9FEDA21ADFEDA30AB2EE9E
:101F0000000A00F59870FFF719FEA048CC30944CF9
:101F10001ECC3C301EC00020974981F89801012159
:101F2000954880F89911052180F89A110021A0F8B0
:101F30009C116421A0F8A0113221A0F89E11B5EEE9
:101F4000000A80ED980AD0F8A411DFED8C1A9FEDFD
:101F50008C1ADFED8C0AB1EE040A00F5EA70FFF787
:101F6000EDFD8548B0F9A011F7EE001A9FED841A37
:101F7000DFED850AB2EE000A00F5FE70FFF7DEFD28
:101F80008348794C1ECC3C301EC000207A4981F831
:101F900064020121784880F86512052180F86612F4
:101FA0000021A0F868126421A0F86C123221A0F878
:101FB0006A12D0F87012DFED711A9FED711ADFED21
:101FC000710AB1EE040A00F52870FFF7B7FD6A4800
:101FD000B0F96C12F7EE001A9FED691ADFED6A0A8C
:101FE000B2EE000A00F53270FFF7A8FD6848CC3069
:101FF0005B4C1ECC3C301EC000205F4981F8300392
:1020000001215D4880F83113052180F83213002149
:10201000A0F834136421A0F838133221A0F8361345
:102020009FED5C0A80EDFE0AD0F83C13DFED531AF9
:102030009FED531ADFED530AB1EE040A00F55B7011
:10204000FFF77CFD4C48B0F93813F7EE001A9FED0E
:102050004C1ADFED4D0AB2EE000A00F56570FFF78D
:102060006DFD4D483E4C1ECC3C301EC00020424908
:1020700081F8FC030121404880F8FD13052180F818
:10208000FE130021A0F800146421A0F804143221EA
:10209000A0F80214012180F888149FED400A00F591
:1020A0007F7080ED240AB6EE000A80ED320A40F21D
:1020B0004C413148A0F89214D0F80814DFED2F1AE3
:1020C0009FED2F1ADFED2F0AB1EE040A00F58760AD
:1020D000FFF734FD2848B0F90414F7EE001A9FED1D
:1020E000281ADFED290AB2EE000A00F58C60FFF72E
:1020F00025FD2948CC301A4CD4E90031D4E902241A
:10210000C0E91124C0E90F3100201B4981F8C8043F
:102110000121194880F8C914052180F8CA1400214A
:10212000A0F8CC146421A0F8D0143221A0F8CE1469
:10213000D0F8D414DFED111A9FED111ADFED110A5A
:10214000B1EE040A00F20450FFF7F8FC0A48B0F9B7
:10215000D014F7EE001A9FED0A1ADFED0B0A1FE00C
:10216000C44A00202CA09941D44A0020000010420B
:10217000E44A0020F84A0020144B0020CDCCCC3E8D
:1021800000000000CDCC4C3E9A99993E604C002056
:10219000F84D00201111113E904F00200000F04238
:1021A000B2EE000A00F22C50FFF7C8FCFD48FE4CCE
:1021B000D4E901132268E468C0E91134C0E90F21B1
:1021C0000020FA4981F894050121F84880F8951516
:1021D000052180F896150021A0F898156421A0F833
:1021E0009C153221A0F89A15D0F8A0155FED1D1AA4
:1021F0001FED1D1A5FED1D0AB1EE040A00F5BA606D
:10220000FFF79CFCE948B0F99C15F7EE001A1FEDAA
:10221000241A5FED230AB2EE000A00F5BF60FFF753
:102220008DFC002077E000EB001101EB4101DF4A5B
:1022300002EB810191ED240A00EB001101EB410159
:1022400002EB810191ED321AC0EE010A00EB0011A0
:1022500001EB410102EB810191ED300A60EE800A51
:1022600000EB001101EB410102EB8101B1F8BC1060
:1022700000EE101AB8EE400A20EE800ADFEDCC0A1C
:1022800080EE201ABCEEC10A00EB001101EB410107
:1022900002EB810181ED280A00EB001101EB410105
:1022A00002EB8101B1F9041000EE101AF8EEC00A39
:1022B00000EB001101EB410102EB810191ED321ABB
:1022C00080EE810A00EB001101EB410102EB81017C
:1022D000D1ED300A60EE200A00EB001101EB410164
:1022E00002EB8101B1F8BC1000EE101AB8EE400A02
:1022F00020EE800ADFEDAE0A80EE201ABDEEC10AA4
:1023000010EE101A00EB001202EB4202A74B03EB97
:102310008202D160401C082885DB10BD00223921D3
:102320000A54C26100218182704710B5044604EB53
:10233000041000EB40009D4901EB8000D0ED1D0A28
:1023400004EB041000EB400001EB8000B0F9080042
:1023500000EE100AB8EEC00A20EE800ABDEEC00AF8
:1023600010EE100A04EB041101EB41018F4A02EB5D
:102370008101486604EB041000EB4000114601EBBC
:102380008000B0F9181004EB041000EB400002EBE1
:102390008000C16704EB041101EB410102EB8101F4
:1023A00001F16400FFF7DAFB04EB041000EB4000DE
:1023B0007E4901EB8000C18804EB041000EB400073
:1023C0007A4A02EB8000806F084401B204EB0410EB
:1023D00000EB400002EB8000C18010BD10B5044648
:1023E00004EB041000EB4000704901EB8000B0F9F1
:1023F000040000EE100AB8EEC00A04EB041000EB73
:10240000400001EB8000D0ED320A80EE201A04EB90
:10241000041000EB400001EB800090ED300A61EE0B
:10242000000A04EB041000EB400001EB8000B0F860
:10243000BC0000EE100AB8EE400A20EE800ADFED84
:102440005C0A80EE201ABDEEC10A10EE100A04EB01
:10245000041101EB4101554A02EB8101C86004EB14
:10246000041000EB4000114601EB8000C06804EB53
:10247000041101EB410102EB8101C86304EB04107C
:1024800000EB4000114601EB8000407870B904EB8E
:10249000041000EB400001EB8000D0F8A40004EB36
:1024A000041101EB410102EB8101C86304EB04104C
:1024B00000EB40003D4901EB800090F88C0080B3B8
:1024C00004EB041000EB400001EB8000C06B00281F
:1024D00007DD04EB041000EB400001EB8000C06B53
:1024E00008E004EB041000EB4000304901EB8000F1
:1024F000C06B404204EB041101EB41012B4A02EB9B
:102500008101D1F8A01088421FD904EB041000EB20
:102510004000114601EB8000C06B002802DB012067
:1025200002E012E04FF0FF3004EB041101EB410137
:102530001E4A02EB8101D1F8A010484304EB0411BC
:1025400001EB410102EB8101C86304EB041000EBD5
:102550004000164901EB8000C16904EB041000EB58
:102560004000124A02EB8000416504EB041101EBCC
:10257000410102EB810101F13C00FFF7EFFA04EBAE
:10258000041000EB4000094901EB8000D0ED130A74
:1025900004EB041000EB400001EB8000006D00EE46
:1025A000100A07E028510020C44A0020144B0020E4
:1025B0000000B443B8EEC00A20EE800ABDEEC00AA7
:1025C00010EE100A04EB041101EB4101FE4A02EB8C
:1025D0008101486604EB041000EB4000114601EB5A
:1025E000800090F8940080B304EB041000EB4000EE
:1025F00001EB8000406E002807DD04EB041000EBC7
:10260000400001EB8000406E08E004EB041000EB9A
:102610004000ED4901EB8000406E404204EB0411A4
:1026200001EB4101E84A02EB8101B1F896108842C2
:102630001FDD04EB041000EB4000114601EB8000AD
:10264000406E002802DB012002E012E04FF0FF3074
:1026500004EB041101EB4101DB4A02EB8101B1F80B
:102660009610484304EB041101EB410102EB810198
:10267000486604EB041000EB4000D34901EB8000F6
:10268000B0F9181004EB041000EB4000CE4A02EB46
:102690008000C16704EB041101EB410102EB8101F1
:1026A00001F16400FFF75AFA04EB041000EB40005C
:1026B000C54901EB8000C18804EB041000EB400029
:1026C000C14A02EB8000806F084401B204EB0410A1
:1026D00000EB400002EB8000C18004EB041000EB33
:1026E0004000114601EB8000D0F8AC00002808DD66
:1026F00004EB041000EB400001EB8000D0F8AC00CC
:1027000009E004EB041000EB4000AF4901EB80004E
:10271000D0F8AC0040423C280ADA012004EB041156
:1027200001EB4101A84A02EB810181F8340009E084
:10273000002004EB041101EB4101A34A02EB8101EB
:1027400081F8340010BD10B5044604EB041000EB12
:1027500040009D4901EB8000B0F99C0004EB04119E
:1027600001EB4101984A02EB8101486604EB041039
:1027700000EB4000114601EB8000B0F9181004EBAB
:10278000041000EB400002EB8000C16704EB041171
:1027900001EB410102EB810101F16400FFF7DEF979
:1027A00004EB041000EB4000874901EB8000C18876
:1027B00004EB041000EB4000834A02EB8000806FC2
:1027C000084401B204EB041000EB400002EB80006F
:1027D000C18004EB041000EB4000114601EB8000C7
:1027E000B0F90600002808DD04EB041000EB4000FF
:1027F00001EB8000B0F9060009E004EB041000EBE7
:102800004000714901EB8000B0F9060040426F4979
:10281000498A88421ADD04EB041000EB40006A4943
:1028200001EB8000B0F90600002801DB012001E087
:102830004FF0FF306549498A484301B204EB041068
:1028400000EB4000604A02EB8000C18004EB041002
:1028500000EB40005C4901EB8000B0F9A8000028C3
:1028600008DD04EB041000EB400001EB8000B0F940
:10287000A80009E004EB041000EB4000524901EB12
:102880008000B0F9A8004042322814DA04EB0410AA
:1028900000EB40004C4901EB8000B0F8B000401C58
:1028A00081B204EB041000EB4000474A02EB8000C9
:1028B000A0F8B01009E0002104EB041000EB400088
:1028C000414A02EB8000A0F8B01004EB041000EBCA
:1028D00040003D4901EB8000B0F8B000FA2821DD4E
:1028E000002104EB041000EB4000374A02EB8000AB
:1028F000A0F8B01004EB041000EB400002EB8000E5
:10290000C161052004EB041101EB410102EB8101DF
:102910008870012104EB041000EB400002EB800002
:1029200080F8351010BD70B5044604EB041000EBC0
:102930004000254911F8200008B9002070BD04EBC3
:10294000041000EB4000204901EB800090F8980053
:1029500000287CD004EB041000EB400001EB800069
:102960008078022874D104EB041000EB400001EBE6
:102970008000B0F91800002808DD04EB041000EB1B
:10298000400001EB8000B0F9180009E004EB0410EE
:1029900000EB40000C4901EB8000B0F91800404208
:1029A000002839DB04EB041000EB4000064901EB82
:1029B0008000B0F9180000280DDD04EB041000EBD6
:1029C000400001EB800003E0144B0020E44A0020AB
:1029D000B0F9180009E004EB041000EB4000FD49D9
:1029E00001EB8000B0F918004042642814DA04EBCF
:1029F000041000EB4000F74901EB800090F8B200B2
:102A0000401CC1B204EB041000EB4000F14A02EBA1
:102A1000800080F8B21009E0002104EB041000EB04
:102A20004000EC4A02EB800080F8B21004EB041086
:102A300000EB4000E74901EB800090F8B21004EB96
:102A4000041000EB4000E34A02EB800001E0C0E02C
:102A500072E0B0F8BA00814213DD012104EB0410EA
:102A600000EB400002EB800080F83610012242EAC1
:102A7000041292B242F40071D74A5068FEF76CFE1D
:102A800019E0002104EB041000EB4000D14A02EBF6
:102A9000800080F83610012242EA041292B242F419
:102AA0000071CD4A5068FEF749FE0546CA4948689C
:102AB0002946FEF72DFE04EB041000EB4000C5494B
:102AC00001EB8000BC30C54988421AD104EB0410E8
:102AD00000EB4000BF4901EB800090F83600012870
:102AE00077D104EB041000EB400001EB8000B0F95B
:102AF0001A0028286DDB4FF48070B9490883012043
:102B00001CE704EB041000EB4000B24901EB80002D
:102B1000BC30B4498842E3D104EB041000EB400020
:102B2000AC4901EB800090F836000128D8D10002B2
:102B3000AB490883012001E704EB041000EB4000DF
:102B4000A44901EB800080780528C9D104EB04106A
:102B500000EB400001EB8000C16904EB041000EBC6
:102B600040009C4A02EB8000C06A081A322801DA51
:102B7000012000E00020002816DD04EB041000EB2B
:102B80004000944901EB8000C16904EB041000EBA4
:102B90004000904A02EB8000C06A081A322801DA2D
:102BA000012019E0002017E004EB041000EB4000C6
:102BB000884901EB8000C16904EB041000EB400080
:102BC000844A02EB8000C06A081A322802DA012027
:102BD00001E081E00020404200287DD004EB041099
:102BE00000EB40007B4901EB8000C06F002807DD4F
:102BF00004EB041000EB400001EB8000C06F08E024
:102C000004EB041000EB4000724901EB8000C06F40
:102C1000404264281DDA04EB041000EB40006D49CB
:102C200001EB800090F8340098B904EB041000EB3D
:102C3000400001EB800090F8B200401CC1B204EBF0
:102C4000041000EB4000634A02EB800080F8B210F1
:102C500009E0002104EB041000EB40005D4A02EBA8
:102C6000800080F8B21004EB041000EB40005949DA
:102C700001EB800090F8B21004EB041000EB400070
:102C8000544A02EB8000B0F8BA00814209DD01210C
:102C900004EB041000EB400002EB800080F83610DB
:102CA00009E0002104EB041000EB4000494A02EB6C
:102CB000800080F8361004EB041000EB400045491A
:102CC00001EB8000BC30454988421CD104EB041064
:102CD00000EB40003F4900E030E001EB800090F85D
:102CE000360001282AD104EB041000EB400001EB70
:102CF0008000B0F91A00282820DB4FF48070384992
:102D0000088301201AE604EB041000EB400031496F
:102D100001EB8000BC30334988420FD104EB041032
:102D200000EB40002B4901EB800090F836000128B1
:102D300004D100022A4908830120FFE50020FDE5B7
:102D400010B5002442E0A0B2FFF7EDFD88B104EB1E
:102D5000041000EB40001F4901EB800090F89A003E
:102D600038B1002004EB041101EB4101194A02F8CB
:102D7000210004EB041000EB4000164901EB800039
:102D8000407878B104EB041000EB400001EB8000C8
:102D9000C16904EB041000EB40000E4A02EB800016
:102DA000C0F8A41004EB041000EB4000094901EB4B
:102DB000800090F8390040B104EB041101EB4101AF
:102DC000044A02EB8100FFF7A9FA641C082CBADB65
:102DD00010BD0000144B00206C030020C44A0020EA
:102DE00000000240D44A002010B54FF47A60FA493E
:102DF00008809FEDFA0A084680ED010A4FF48040F2
:102E0000F7490880B7EE000A084680ED010A4FF442
:102E10008040F4490880B7EE000A084680ED010AB8
:102E20004FF47A60F0490880B7EE000A084680ED5A
:102E3000010A0020ED4908709FEDED0A084680ED7B
:102E4000010A002008724FF47A704881002048730C
:102E50004FF4FA70C88140000882012008730020F6
:102E600008759FEDE30A084680ED060A0021017708
:102E70004FF4FA71C183002180F821104FF4FA71E8
:102E8000418449008184012180F820100020D74925
:102E900081F828009FEDD60A084680ED0B0A002134
:102EA00080F830104FF4FA714186002180F8351017
:102EB0004FF4FA71C18649000187012180F834106E
:102EC0000020CC49C8604FF47A700882CA48C44ACE
:102ED00006CAC0E912120020C749487002200870D3
:102EE000002088800021C4480181C1801422BF498C
:102EF00020300AF09BFAC048BE490A6842638988BC
:102F00000187BC48C188BC484187BA4B9968DA68D8
:102F10001B693C300EC00830B34A06CAC0E9121221
:102F20000021503880F851100220B34981F8500038
:102F30004FF4B471B048A0F85410C821A0F858104C
:102F40000221A0F856101422A84970300AF06EFA37
:102F5000A9485030A7490A68426389880187A54873
:102F6000C188A548A0F88A105030A24B9A68D96849
:102F70001B69C0E91013C26350309A4A06CAC0E9FF
:102F800012120021A03880F8A11002209A4981F87D
:102F9000A0004FF4B4719848A0F8A410C821A0F87C
:102FA000A8100221A0F8A61014229049C0300AF0FF
:102FB0003DFA9148A0308F490A68426389880187A9
:102FC0008C48C1888C48A0F8DA10A030894B9968E9
:102FD000DA681B693C300EC010BD10B586B00446DF
:102FE000002001908DF80D008DF80C0008208DF860
:102FF0000E0001208DF80F0000218DF810108DF8C3
:1030000011108DF812108DF813108DF814108DF822
:1030100015108DF8161001A9204605F0EBFA06B040
:1030200010BD30B5754B5B885B1C1E2493FBF4F51B
:1030300004FB1533714C2488A34203D10123704C47
:10304000E37030BD00F540736C4C6588241D04EBC3
:1030500005142360012922D10424684B5D881B1DBF
:1030600003EB05131C714124644B5D881B1D03EBAE
:1030700005135C714324614B5D881B1D03EB051335
:103080009C7100245D4B5D881B1D03EB0513DC71F7
:103090005A4B5D881B1D03EB05131C722AE00229A5
:1030A00028D10824554B5D881B1D03EB05131C71AB
:1030B0004124524B5D881B1D03EB05135C714324B7
:1030C0004E4B5D881B1D03EB05139C7100244B4B7D
:1030D0005D881B1D03EB0513DC71484B5D881B1DD0
:1030E00003EB05131C72454B5C881B1D03EB04139B
:1030F000C3F809200124414B5D881B1D03EB051318
:103100005C733E4B5B885B1C1E2493FBF4F504FB55
:1031100015333A4C638000BF93E738494988491C0E
:103120001E2291FBF2F302FB1311344A12889142E2
:1031300003D10121324AD170704700F540712F4A06
:103140005388121D02EB0312116004222B494B8895
:10315000091D01EB03110A71422228494B88091D00
:1031600001EB03114A71472224494B88091D01EBE9
:1031700003118A71002221494B88091D01EB0311BB
:10318000CA711E494B88091D01EB03110A72012205
:103190001A494B88091D01EB03114A7317494988E5
:1031A000491C1E2291FBF2F302FB1311134A5180BA
:1031B00000BFC1E730B5114B5B885B1C1E2493FB3D
:1031C000F4F504FB15330D4C2488A3421AD10123D6
:1031D0000B4CE37030BD000084030020CDCC6C406C
:1031E0008C030020940300209C03002074510020D5
:1031F00000003444D8510020EC510020FC4600204F
:10320000A82A002000F54073FE4C6588241D04EBBD
:1032100005142360012922D10424FA4B5D881B1D6B
:1032200003EB05131C714424F64B5D881B1D03EB57
:1032300005135C714324F34B5D881B1D03EB0513E1
:103240009C710024EF4B5D881B1D03EB0513DC71A3
:10325000EC4B5D881B1D03EB05131C722AE0022951
:1032600028D10824E74B5D881B1D03EB05131C7157
:103270004424E44B5D881B1D03EB05135C71432460
:10328000E04B5D881B1D03EB05139C710024DD4B97
:103290005D881B1D03EB0513DC71DA4B5D881B1D7C
:1032A00003EB05131C72D74B5C881B1D03EB041347
:1032B000C3F809200124D34B5D881B1D03EB0513C4
:1032C0005C73D04B5B885B1C1E2493FBF4F504FB02
:1032D0001533CC4C638000BF30BDCA494988491CB6
:1032E0001E2291FBF2F302FB1311C64A128891428F
:1032F00003D10121C44AD170704700F54071C14A21
:103300005388121D02EB031211600422BD494B8841
:10331000091D01EB03110A714922BA494B88091DA5
:1033200001EB03114A715122B6494B88091D01EB8B
:1033300003118A710022B3494B88091D01EB031167
:10334000CA718022AF494B88091D01EB03110A7233
:103350000122AC494B88091D01EB03114A73A949AD
:103360004988491C1E2291FBF2F302FB1311A54A66
:10337000518000BFC0E730B5A24A5288521C1E23BC
:1033800092FBF3F403FB14229E4B1B889A4203D159
:1033900001229D4BDA7030BD00F54072994B5C887C
:1033A0001B1D03EB04131A60012922D10423954A43
:1033B0005488121D02EB041213714A23914A548857
:1033C000121D02EB0412537156238E4A5488121DAB
:1033D00002EB0412937100238A4A5488121D02EBF7
:1033E0000412D371874A5488121D02EB041213721F
:1033F0003FE002293DD1431E03EB8303834C04EBE2
:103400000313B3F90830441E04EB84047F4D05EB2D
:103410000414B4F8484063433C2493FBF4F20824BA
:10342000784B5D881B1D03EB05131C714A24754BFB
:103430005D881B1D03EB05135C715624714B5D8881
:103440001B1D03EB05139C7100246E4B5D881B1D37
:1034500003EB0513DC716B4B5D881B1D03EB051340
:103460001C72684B5C881B1D03EB0413C3F8092016
:1034700000BF0123634A5488121D02EB04125373E8
:10348000604A5288521C1E2392FBF3F403FB142261
:103490005C4B5A8000BF7EE730B55A4B5B885B1CA3
:1034A0001E2493FBF4F504FB1533564C2488A342E9
:1034B00003D10123544CE37030BD00F54073514CEF
:1034C0006588241D04EB05142360012923D10424FD
:1034D0004C4B5D881B1D03EB05131C714D24494BA0
:1034E0005D881B1D03EB05135C714F24454B5D8804
:1034F0001B1D03EB05139C710024424B5D881B1DB3
:1035000003EB0513DC7140243E4B5D881B1D03EB70
:1035100005131C723BE0022939D10824394B5D8820
:103520001B1D03EB05131C714D24364B5D881B1DC1
:1035300003EB05135C714F24324B5D881B1D03EBBD
:1035400005139C7100242F4B5D881B1D03EB051395
:10355000DC712C4B5D881B1D03EB05131C72294B82
:103560005D881B1D03EB05135A72264B5D881B1DDE
:1035700003EB05139C72234B5D881B1D03EB0513A6
:10358000DC72204B5D881B1D03EB05131C730124AB
:103590001C4B5D881B1D03EB05135C73194B5B888B
:1035A0005B1C1E2493FBF4F504FB1533154C638060
:1035B00000BF81E730B5134A5288521C1E2392FB8C
:1035C000F3F403FB14220F4B1B889A4203D1012210
:1035D0000D4BDA7030BD00F540720A4B5C881B1D44
:1035E00003EB04131A6001292AD10423054A5488E5
:1035F000121D02EB041213715023024A5488121D4B
:1036000006E00000FC460020A82A0020EC51002023
:1036100002EB041253714123FE4A5488121D02EB3F
:10362000041293710023FB4A5488121D02EB04120A
:10363000D371F84A5488121D02EB0412137255E03C
:10364000022953D1431E03EB8303F34C04EB031312
:10365000B3F9043000EE103AB8EEC00A9FEDEF1A4D
:10366000C0EE010A431E03EB830304EB0313B3F81C
:10367000483000EE103AB8EE400A20EE800A431EB1
:1036800003EB830304EB0313D3ED130A20EE200AAC
:10369000BDEEC00A10EE102A0824DE4B5D881B1D0B
:1036A00003EB05131C715024DA4B5D881B1D03EBE3
:1036B00005135C714124D74B5D881B1D03EB05137B
:1036C0009C710024D34B5D881B1D03EB0513DC713B
:1036D000D04B5D881B1D03EB05131C72CD4B5C8822
:1036E0001B1D03EB0413C3F8092000BF0123C94AC3
:1036F0005488121D02EB04125373C64A5288521C9E
:103700001E2392FBF3F403FB1422C24B5A8000BF2A
:1037100060E730B5BF4A5288521C1E2392FBF3F477
:1037200003FB1422BB4B1B889A4203D10122BC4BE2
:10373000DA7030BD01292AD100F54072B54B5C88A2
:103740001B1D03EB04131A600423B24A5488121D94
:1037500002EB041213715023AE4A5488121D02EB7F
:10376000041253715223AB4A5488121D02EB041207
:1037700093710023A74A5488121D02EB0412D371DF
:10378000A44A5488121D02EB041213725DE0022950
:103790005BD1431E03EB83039F4C04EB0313B3F98C
:1037A000043000EE103AB8EEC00A9FED9C1AC0EE4D
:1037B000010A431E03EB830304EB0313B3F8483001
:1037C00000EE103AB8EE400A20EE800A431E03EBEA
:1037D000830304EB0313D3ED130A20EE200ABDEE9E
:1037E000C00A10EE102A00F540738A4C6588241D2B
:1037F00004EB051423600424864B5D881B1D03EB3A
:1038000005131C715024834B5D881B1D03EB0513AE
:103810005C7152247F4B5D881B1D03EB05139C716B
:1038200000247C4B5D881B1D03EB0513DC71794B79
:103830005D881B1D03EB05131C72764B5C881B1DFA
:1038400003EB0413C3F8092000BF0123714A548815
:10385000121D02EB041253736E4A5288521C1E232F
:1038600092FBF3F403FB14226A4B5A8000BF60E71B
:1038700068494988491C1E2291FBF2F302FB13118F
:10388000644A1288914203D10121654AD170704780
:1038900000F540715F4A5388121D02EB031211605C
:1038A00004225C494B88091D01EB03110A71502267
:1038B00058494B88091D01EB03114A7145225549AE
:1038C0004B88091D01EB03118A71002251494B8875
:1038D000091D01EB0311CA714E494B88091D01EB0B
:1038E00003110A7201224B494B88091D01EB031198
:1038F0004A7348494988491C1E2291FBF2F302FB96
:103900001311444A518000BFC1E730B5414A528883
:10391000521C1E2392FBF3F403FB14223D4B1B8825
:103920009A4203D101223E4BDA7030BD012922D1E7
:103930000423384A5488121D02EB041213715023D9
:10394000344A5488121D02EB041253715823314A31
:103950005488121D02EB0412937100232D4A5488DF
:10396000121D02EB0412D3712A4A5488121D02EB75
:103970000412137267E0022965D1431E03EB83032F
:10398000254C04EB0313B3F9043000EE103AB8EE03
:10399000C00A9FED221AC0EE010A431E03EB830307
:1039A00004EB0313B3F8483000EE103AB8EE400AC7
:1039B00020EE800A431E03EB830304EB0313D3EDD5
:1039C000130A20EE200ABDEEC00A10EE102A00F500
:1039D0004073104C6588241D04EB051423600824F3
:1039E0000C4B5D881B1D03EB05131C715024094B08
:1039F0005D881B1D03EB05135C715824054B5D8826
:103A00001B1D03EB05139C710024024B5D881B1DDD
:103A100008E00000FC460020EC5100200000B44308
:103A2000A82A002003EB0513DC71F94B5D881B1DF0
:103A300003EB05131C72F64B5C881B1D03EB041390
:103A4000C3F8092000BF0123F14A5488121D02EB7C
:103A500004125373EE4A5288521C1E2392FBF3F455
:103A600003FB1422EA4B5A8000BF5EE730B5E84AF8
:103A70005288521C1E2392FBF3F403FB1422E44BE6
:103A80001B889A4203D10122E24BDA7030BD00F567
:103A90004072DF4B5C881B1D03EB04131A60012985
:103AA00023D10423DA4A5488121D02EB0412137145
:103AB0005323D74A5488121D02EB0412537150232A
:103AC000D34A5488121D02EB041293710023D04A8A
:103AD0005488121D02EB0412D3714023CC4A54883F
:103AE000121D02EB041213723FE002293DD1431E66
:103AF00003EB8303C84C04EB0313B3F90830441EF3
:103B000004EB8404C44D05EB0414B4F8484063434B
:103B10003C2493FBF4F20824BD4B5D881B1D03EB92
:103B200005131C715324BA4B5D881B1D03EB051351
:103B30005C715024B64B5D881B1D03EB05139C7113
:103B40000024B34B5D881B1D03EB0513DC71B04BE8
:103B50005D881B1D03EB05131C72AD4B5C881B1DA0
:103B600003EB0413C3F8092000BF0123A84A5488BB
:103B7000121D02EB04125373A54A5288521C1E23D5
:103B800092FBF3F403FB1422A14B5A8000BF7DE7A4
:103B90009F494988491C1E2291FBF2F302FB131135
:103BA0009B4A1288914203D101219A4AD1707047F1
:103BB000411E01EB8101984A02EB0111B1F9061097
:103BC00000EE901AF8EEE00AB0EE600A00F54071DF
:103BD0008F4A5388121D02EB0312116008228C4990
:103BE0004B88091D01EB03110A71542288494B8847
:103BF000091D01EB03114A71432285494B88091DB8
:103C000001EB03118A71002281494B88091D01EBE8
:103C10000311CA717E494B88091D01EB03110A7219
:103C2000FDEEC00A7A494A88091D01EB0211491DBF
:103C3000C1ED010A012276494B88091D01EB0311F0
:103C40004A7300BF72494988491C1E2291FBF2F356
:103C500002FB13116E4A518000BFA8E730B56C4BD0
:103C60005B885B1C1E2493FBF4F504FB1533684C46
:103C70002488A34203D10123664CE37030BD00F5D4
:103C80004073634C6588241D04EB051423600129EF
:103C900022D104245E4B5D881B1D03EB05131C71B0
:103CA00055245B4B5D881B1D03EB05135C714D2494
:103CB000574B5D881B1D03EB05139C710024544B6F
:103CC0005D881B1D03EB0513DC71514B5D881B1DCB
:103CD00003EB05131C723BE0022939D108244C4B3D
:103CE0005D881B1D03EB05131C715524484B5D8833
:103CF0001B1D03EB05135C714D24454B5D881B1D9B
:103D000003EB05139C710024414B5D881B1D03EBE5
:103D10000513DC713E4B5D881B1D03EB05131C7204
:103D20003B4B5D881B1D03EB05135A72384B5D88B6
:103D30001B1D03EB05139C72354B5D881B1D03EBAC
:103D40000513DC72324B5D881B1D03EB05131C73DE
:103D500001242F4B5D881B1D03EB05135C732C4B5B
:103D60005B885B1C1E2493FBF4F504FB1533284C85
:103D7000638000BF82E726494988491C1E2291FBC7
:103D8000F2F302FB1311224A1288914203D101215E
:103D9000204AD170704700F540711D4A5388121DAA
:103DA00002EB03121160042219494B88091D01EB33
:103DB00003110A71532216494B88091D01EB0311A7
:103DC0004A71542212494B88091D01EB03118A7173
:103DD00000220F494B88091D01EB0311CA710C49E0
:103DE0004B88091D01EB03110A72012208494B8817
:103DF000091D01EB03114A7305494988491C1E221C
:103E000091FBF2F302FB1311014A518000BFC1E79D
:103E1000FC460020A82A0020EC51002026494988B1
:103E2000491C1E2291FBF2F302FB1311224A128855
:103E3000914203D10121214AD170704700F54071B0
:103E40001D4A5388121D02EB0312116004221A4905
:103E50004B88091D01EB03110A71562216494B8844
:103E6000091D01EB03114A71582213494B88091DA2
:103E700001EB03118A7100220F494B88091D01EBE8
:103E80000311CA710C494B88091D01EB03110A7219
:103E9000012209494B88091D01EB03114A730649A8
:103EA0004988491C1E2291FBF2F302FB1311024ABE
:103EB000518000BFC1E70000FC460020A82A002076
:103EC00030B502460023012904D10120EE4C2070B8
:103ED000062303E00120EC4C6070062300202CE058
:103EE0000024C0EB801502EBC5052C61C0EB8015EA
:103EF00002EBC5052C73C0EB801542F83540C0EBD2
:103F0000801502EBC5056C600025C0EB801402EB48
:103F1000C404E5820024C0EB801502EBC505AC8229
:103F2000C0EB801502EBC505AC600025C0EB80142A
:103F300002EBC40484F82550401C9842D0DB30BD0D
:103F40002DE9F04105460E4617464FF00008012FB7
:103F500002D14FF0060801E04FF006080024D9E036
:103F6000C4EB841005EBC000006901287EDBC4EBC4
:103F7000841005EBC000017BC4EB841005EBC0008E
:103F8000007B401CC4EB841205EBC20210731E2997
:103F90006DDB3046FDF71DFE60B1C4EB841005EB10
:103FA000C0008068401CC4EB841105EBC10188602F
:103FB000BDE8F081C4EB841105EBC10101F11400EF
:103FC000FDF7FEFD30B10020C4EB841105EBC1010B
:103FD0008860EDE7C4EB841005EBC0000069401E6B
:103FE000C4EB841105EBC10108610020C4EB84110E
:103FF00005EBC1010873C4EB841105EBC1018860B6
:10400000C4EB841005EBC0001830C4EB841105EB41
:10401000C101898A00EB011072880168301D00EB34
:1040200002100160C4EB841005EBC0001830C4EB33
:10403000841105EBC101898A00EB011001797288B6
:10404000301D00EB02100171C4EB841005EBC000C1
:104050001830C4EB841105EBC101898A00EB011013
:10406000417B7288301D00EB021001E04EE031E030
:104070004173C4EB841305EBC3031833C4EB841CF6
:1040800005EBCC0CBCF814C003EB0C13591DB6F8AF
:1040900002C0331D03EB0C131A79331D03EB0C1311
:1040A000581D09F0C3F97088401C1E2190FBF1F2E5
:1040B00001FB12007080C4EB841005EBC000808A05
:1040C000401C90FBF1F201FB1200C4EB841105EBE4
:1040D000C1018882C4EB841005EBC00080680A2807
:1040E0000BD8C4EB841055F83000C4EB841105EBF9
:1040F000C1014968401A32280BDD6448C4EB8411C1
:1041000005EBC1010861012F01D100BF01E000BF33
:1041100000BF641C4445FFF623AF00BF48E72DE90C
:10412000F04104460E4617464FF00008FF2531883F
:10413000301D00EB0110407B08B9BDE8F081012F74
:1041400002D14FF0060809E04FF006083188301D13
:1041500000EB01100088A0F2013085B245450DDA70
:10416000C5EB851104EBC10101F11400FDF731FD30
:1041700048B1012F03D101204349887082E001201A
:104180004149C8707EE0C5EB851004EBC0000069B2
:10419000401CC5EB851104EBC1010861C5EB85101E
:1041A00054F83000401CC5EB851144F831003188CB
:1041B000301D00EB01100268C5EB851004EBC00058
:1041C0001830C5EB851104EBC101C98A00EB011061
:1041D00002603188301D00EB01100279C5EB8510BB
:1041E00004EBC0001830C5EB851104EBC101C98A8E
:1041F00000EB011002713188301D00EB0110427B91
:10420000C5EB851004EBC0001830C5EB851104EB3D
:10421000C101C98A00EB01104273C5EB851304EBA1
:10422000C3031833C5EB851C04EBCC0CBCF816C0DB
:1042300003EB0C131A79C5EB851304EBC303183396
:10424000C5EB851C04EBCC0CBCF816C003EB0C13BF
:10425000581DB6F800C0331D03EB0C13591D09F0AF
:10426000E5F8C5EB851004EBC000C08A401C1E2198
:1042700090FBF1F201FB120081B2C5EB851004EB5B
:10428000C000C18200BF58E7A82A0020F0D8FFFF75
:104290001CB5F248006840F40030F0490860EF486F
:1042A0001038006840F40010EC4910390860012013
:1042B000022100230A46CDE900100C21E84803F052
:1042C00031FE07220221E64803F00CFE07220321FB
:1042D000E34803F007FE4FF4B670E24908800C2073
:1042E000091D0880DF480838008820F02000DD49DB
:1042F00008390880DB48001D008840F02000D949BB
:10430000091D0880032326220221042003F05CFDFE
:104310004FF48070D44BD34A121F04210090D3482D
:1043200003F096FC01221021D04804F032FE032352
:1043300011220221072003F047FDCA480C300088F3
:1043400040F08000C7490C310880C648001D008835
:1043500040F40050C349091D08801CBD10B5C44974
:10436000C24804F033FE01280AD1C149BF4804F015
:10437000FCFDBF49BD4804F053FE0020BD49C8758F
:1043800010BD10B52DED048B002440F22531B54849
:10439000083806F074FA58B1B248083806F0ADF99A
:1043A0000020B54908702021B44809F058F8F2E31C
:1043B00040F22551AB48083806F061FA0028F6D0E3
:1043C0002021A848083806F051FA40F22551A548A6
:1043D000083806F08BFAA348083806F08EF9C4B204
:1043E000A548007800F0400008B3A348007800F02A
:1043F000800020BBFF2C06D19F48007840F0800051
:104400009D4908701BE09C48007800F03F019B48E4
:10441000445499480078401C974908700846007831
:1044200000F03F0028280ADD0020087007E0EE2C8D
:1044300005D19148007840F040008F4908708E48BF
:10444000007800F080000028B1D08D4890F821025B
:10445000012804D18A4890F823028A4908708848C4
:1044600090F82302082872D2DFE810F008002D002F
:10447000F4019E0346047100C505D105804890F8FB
:104480002502052802D009281AD115E0012080F361
:10449000138800BF00BFBFF34F8F7B48006800F454
:1044A000E0607A490843001D77490860BFF34F8FE9
:1044B00000BF00BF00BFFDE701207549087000E0A4
:1044C00000BF00BF6FE36E4890F82502202870D22D
:1044D000DFE800F06F5FBDF0EF69F7EDEC1E79EB00
:1044E000EA2D8AE9E83E9BE7E64EACE5E46F6F1003
:1044F00074E3E2C3002008E0002100EB001202EBAD
:104500004202644B03F82210401C0828F4DB9FE1B0
:104510005A48C01D09F0D4FDB0EE408AF0EE608A22
:1045200051EC180B09F06EF95A49887090E1534824
:10453000C01D09F0C5FDB0EE408AF0EE608A51EC76
:10454000180B09F040F901B25248018180E1F3E310
:104550004A48C01D09F0B4FDB0EE408AF0EE608A12
:1045600051EC180B09F02FF900B24A4988806FE12D
:104570004248C01D09F0A4FDB0EE408AF0EE608A0A
:1045800051EC180B09F03EF981B24248A0F89610A0
:104590005EE13B4890F8280208B1012000E00020CD
:1045A0003C49087054E1364890F8280210B10120C7
:1045B00001E04CE100203749487049E101213548CC
:1045C00080F8391044E12D48C01D09F079FDB0EEA6
:1045D000408AF0EE608A51EC180B09F013F9C1B271
:1045E0002C4880F8CE1033E12448C01D09F068FD46
:1045F000B0EE408AF0EE608A51EC180B09F0E3F857
:1046000001B22448A0F8D41022E11C48C01D09F0D2
:1046100057FDB0EE408AF0EE608A51EC180B09F0BD
:10462000D2F801B21B48A0F8D01011E11348C01D08
:1046300009F046FDB0EE408AF0EE608A51EC180BAE
:1046400009F0E0F881B21348A0F8621100E10C48CB
:1046500090F8280278B301202FE0F3E040380240C0
:104660000000024008440040F42B0020A0600240FB
:1046700000802020A82A0020A5030020F42C002080
:10468000D42A0020A40300200CED00E00000FA056D
:1046900074030020144B002079E01DE0ACE050E0F2
:1046A0009AE03EE088E02CE076E01AE0BFE063E0CC
:1046B00007E0B1E055E0FFE70020FB4981F8CC00BE
:1046C000C6E0FA4890F8280208B1012100E0002174
:1046D000F54880F8CD10BBE00121F34880F80511C2
:1046E000B6E0F34809F0ECFCB0EE408AF0EE608AE8
:1046F00051EC180B09F086F8C1B2EB4880F89A111A
:10470000A6E0EB4809F0DCFCB0EE408AF0EE608AEF
:1047100051EC180B09F057F801B2E348A0F8A011CA
:1047200096E0E34809F0CCFCB0EE408AF0EE608AF7
:1047300051EC180B09F047F801B2DB48A0F89C11C6
:1047400086E0DB4809F0BCFCB0EE408AF0EE608AFF
:1047500051EC180B09F056F881B2D348A0F82E128C
:1047600076E0D24890F8280208B1012000E000204D
:10477000CD4981F898016BE0CC4890F8280208B147
:10478000012100E00021C84880F8991160E0012172
:10479000C54880F8D1115BE0C54809F091FCB0EE46
:1047A000408AF0EE608A51EC180B09F02BF8C1B288
:1047B000BD4880F866124BE0BD4809F081FCB0EEC0
:1047C000408AF0EE608A51EC180B08F0FCFF01B251
:1047D000B548A0F86C123BE0B54809F071FCB0EEAA
:1047E000408AF0EE608A51EC180B08F0ECFF01B241
:1047F000AD48A0F868122BE0AD4809F061FCB0EEBE
:10480000408AF0EE608A51EC180B08F0FBFF81B291
:10481000A548A0F8FA121BE0A44890F8280208B1B5
:10482000012000E00020A04981F8640210E09F48C8
:1048300090F8280208B1012100E000219A4880F890
:10484000651205E00121984880F89D1200E000BF44
:1048500000BF37E6954890F82502202870D2DFE89F
:1048600000F06F5EBAF1F069C5EFEE1E7AD5ED2E5D
:104870008AF2EB3E9AEAE94EAAE8E76F6F1075D02C
:10488000E6E5002008E0002100EB001202EB420206
:10489000854B03F82210401C0828F4DB82E1844891
:1048A00009F00EFCB0EE408AF0EE608A51EC180B75
:1048B00008F0A8FFC1B27C4880F8321372E17C484E
:1048C00009F0FEFBB0EE408AF0EE608A51EC180B66
:1048D00008F079FF01B27448A0F8381362E1744817
:1048E00009F0EEFBB0EE408AF0EE608A51EC180B56
:1048F00008F069FF01B26C48A0F8341352E16C482B
:1049000009F0DEFBB0EE408AF0EE608A51EC180B45
:1049100008F078FF81B26448A0F8C61342E163480A
:1049200090F8280208B1012000E000205E4981F8DB
:10493000300337E15D4890F8280210B1012101E011
:104940002FE10021584880F831132BE1012156480E
:1049500080F8691326E1564809F0B2FBB0EE408AB0
:10496000F0EE608A51EC180B08F04CFFC1B24E48D3
:1049700080F8FE1316E14E4809F0A2FBB0EE408A23
:10498000F0EE608A51EC180B08F01DFF01B24648AA
:10499000A0F8041406E1464809F092FBB0EE408A04
:1049A000F0EE608A51EC180B08F00DFF01B23E48A2
:1049B000A0F80014F6E03E4809F082FBB0EE408A11
:1049C000F0EE608A51EC180B08F01CFF81B23648FB
:1049D000A0F89214E6E0354890F8280208B10120CA
:1049E00000E00020304981F8FC03DBE02F4890F81C
:1049F000280208B1012100E000212B4880F8FD13B6
:104A0000D0E00121284880F83514CBE0284809F08F
:104A100057FBB0EE408AF0EE608A51EC180B08F0BC
:104A2000F1FEC1B2204880F8CA14BBE0B4E057E000
:104A30008BE028E079E016E067E004E055E09FE0D5
:104A400043E092E036E01A4809F03AFBB0EE408AC3
:104A5000F0EE608A51EC180B08F0B5FE01B2124876
:104A6000A0F8D0149EE0124809F02AFBB0EE408A6C
:104A7000F0EE608A51EC180B08F0A5FE01B20A486E
:104A8000A0F8CC148EE00A4809F01AFBB0EE408A78
:104A9000F0EE608A51EC180B08F0B4FE81B20248C7
:104AA000A0F85E157EE00000144B0020D42A002000
:104AB000FB2C0020F94890F8280208B1012000E002
:104AC0000020F74981F8C8046CE0F44890F8280207
:104AD00008B1012100E00021F14880F8C91461E02B
:104AE0000121EF4880F801155CE0EE4809F0E8FA92
:104AF000B0EE408AF0EE608A51EC180B08F082FEAE
:104B0000C1B2E74880F896154CE0E64809F0D8FABB
:104B1000B0EE408AF0EE608A51EC180B08F053FEBC
:104B200001B2DF48A0F89C153CE0DE4809F0C8FA65
:104B3000B0EE408AF0EE608A51EC180B08F043FEAC
:104B400001B2D748A0F898152CE0D64809F0B8FA79
:104B5000B0EE408AF0EE608A51EC180B08F052FE7D
:104B600081B2CF48A0F82A161CE0CC4890F8280261
:104B700008B1012000E00020C94981F8940511E046
:104B8000C64890F8280208B1012100E00021C4487D
:104B900080F8951506E0E9E20121C14880F8CD15BD
:104BA00000E000BF00BFD8E2BC4890F82502801E9C
:104BB00011286ED2DFE800F01A29419D59639D6EDD
:104BC0009D7881898F969D9D0900B64809F078FAF5
:104BD000B0EE408AF0EE608A51EC180B08F012FE3D
:104BE000B14908700120FBF7E0FD83E001220221BA
:104BF000AD480078401CFEF74FFC01221146AA4840
:104C00000078401CFEF748FC74E0A64809F058FA0A
:104C1000B0EE408AF0EE608A51EC180B08F0D3FD3C
:104C200001B2A148007800EB8000A04A02EB00101E
:104C300001810120FBF7B9FD5CE09A4809F040FAD8
:104C4000B0EE408AF0EE608A51EC180B08F0BBFD24
:104C500000B29549097801EB8101944A02EB0111F8
:104C600088800120FBF7A1FD44E002218E480078F6
:104C7000401CFEF780FB0120FBF797FD3AE0022184
:104C800089480078401CFEF795FC0120FBF78DFD5C
:104C900030E02EE0022184480078401CFEF7E6FE5A
:104CA0000120FBF782FD25E07F480078401CFEF7DD
:104CB00034FA0120FBF779FD1CE0002202217A483A
:104CC0000078401CFEF7E8FB14E077480078401CB1
:104CD000FFF751F80EE0022173480078401CFEF700
:104CE00014FE07E0022170480078401CFEF711FD19
:104CF00000E000BF00BF30E2684890F82502801E47
:104D000010287DD2DFE800F008192939495A6B8450
:104D10009BB2DAF8F6F5F4C9604890F8280208B1B9
:104D2000012000E000206249097801EB4101614A5D
:104D300002EB811108705CE10EE2584890F82802FD
:104D400008B1012000E000205B49097801EB410136
:104D5000584A02EB811108704BE1504890F8280244
:104D600008B1012000E000205149097801EB410120
:104D7000504A02EB811148703BE1484890F8280204
:104D800008B1012000E000204B49097801EB410106
:104D9000484A02EB811148702BE1424809F090F932
:104DA000B0EE408AF0EE608A51EC180B08F02AFD54
:104DB0003F4908700120FBF7F8FC1AE1394809F077
:104DC0007FF9B0EE408AF0EE608A51EC180B08F0E3
:104DD00019FD394908700120FBF7E7FC09E131486A
:104DE00009F06EF9B0EE408AF0EE608A51EC180BD3
:104DF00008F008FD2E49097801EB41012D4A00E039
:104E0000F6E002EB8111C8700120FBF7CEFCF0E068
:104E1000244809F055F9B0EE408AF0EE608A51EC72
:104E2000180B08F0EFFC2449097801EB4101214AF5
:104E300002EB8111C8700120FBF7B7FCD9E01948DB
:104E400009F03EF9B0EE408AF0EE608A51EC180BA2
:104E500008F0B9FC1649097801EB4101154A02EB4B
:104E6000811148600120FBF7A0FCC2E00D4809F069
:104E700027F9B0EE408AF0EE608A51EC180B08F08A
:104E8000A2FC0D49097801EB41010A4A02EB8111AC
:104E900048600120FBF789FCABE08FE0D42A0020BA
:104EA000144B0020FB2C0020A6030020EC51002016
:104EB000A7030020F8530020A8030020FE4809F0B3
:104EC000FFF8B0EE408AF0EE608A51EC180B08F063
:104ED000F5FC00EE100AF948007800EB4000F849B4
:104EE00001EB801080ED040A0120FBF75EFC80E0FE
:104EF0004AE032E01AE0FFE7EF4809F0E1F8B0EEEF
:104F0000408AF0EE608A51EC180B08F0D7FC00EEF6
:104F1000100AEC48007800EB4000E94901EB8010F2
:104F200080ED040A0120FBF740FC62E0E24809F052
:104F3000C7F8B0EE408AF0EE608A51EC180B08F02A
:104F4000BDFCDE49097801EB4101DD4A02EB81112C
:104F500048610120FBF729FC4BE0D74809F0B0F885
:104F6000B0EE408AF0EE608A51EC180B08F0A6FC17
:104F7000D449097801EB4101D14A02EB8111486122
:104F80000120FBF712FC34E0CB4809F099F8B0EEB1
:104F9000408AF0EE608A51EC180B08F08FFC00EEAE
:104FA000100AC648007800EB4000C54901EB8010AC
:104FB00080ED030A0120FBF7F8FB1AE0BE4809F078
:104FC0007FF8B0EE408AF0EE608A51EC180B08F0E2
:104FD00075FC00EE100ABB48007800EB4000B849B1
:104FE00001EB801080ED030A0120FBF7DEFB00E0FF
:104FF00000BF00BFB1E0B44890F8250230B1B24A1A
:1050000092F8281292F82502FCF79FFAA5E0AE4824
:1050100090F82502801E062873D2DFE800F0031402
:1050200020244973A44809F04BF8B0EE408AF0EE12
:10503000608A51EC180B08F0C6FBA44908600120F7
:10504000FBF7B3FB86E001210846FCF77EFA6420FB
:10505000FBF7A6FD00210120FCF777FA7AE001209A
:105060009B49087076E001210846FCF76EFA64203F
:10507000FBF796FD9548008801B29648A0F89C1170
:105080004FF47A70FBF78CFD00210120FCF75DFAEC
:105090006420FBF785FD00218E48A0F89C114FF499
:1050A0007A70FBF77DFD01210846FCF74EFA51E0CE
:1050B000814809F005F8B0EE408AF0EE608A51ECC4
:1050C000180B08F0FBFB01467D48C0F89411012045
:1050D000FBF76BFB784808F0F3FFB0EE409AF0EE78
:1050E000609A51EC190B81F0004141EC180B08F06B
:1050F000E5FB01467248C0F8D4100120FBF755FBD0
:1051000028E026E06C4808F0DBFFB0EE408AF0EEC5
:10511000608A51EC180B08F056FB6949C1F884010C
:105120000120FBF742FB644808F0CAFFB0EE409A4A
:10513000F0EE609A51EC190B81F0004141EC180B34
:1051400008F041FB5E49C1F8C4000120FBF72DFBCC
:1051500000E000BF00BF00E000BF00BF00205E49CC
:10516000087020215448C01F08F079F9BDEC048B69
:1051700010BD10B504465948C07D50B92146584865
:1051800003F09BFE0121564803F076FE01205349AF
:10519000C87510BD10B52DED028B0024EE222146FE
:1051A000641C50484254B1222146641C42541022CF
:1051B0002146641C425400222146641C425421466C
:1051C000641C42542146641C425406222146641C3D
:1051D000425401222046611CCCB242490A54FF22AB
:1051E0002046611CCCB23F490A54FC222046611C77
:1051F000CCB23C490A54FF222046611CCCB239494A
:105200000A542046611CCCB236490A54364800780C
:10521000012809D002286DD0032801F05580042808
:1052200041F0A68301F019B9EE222046611CCCB2F0
:105230002C490A54B1222046611CCCB229490A5497
:1052400012222046611CCCB226490A540022204674
:10525000611CCCB223490A5401222046611CCCB205
:1052600020490A541B48407800287DD0194880788E
:105270000028FAD000222046611CCCB219490A54F9
:1052800009222046611CCCB216490A54002220464D
:10529000611CCCB213490A540E48827813A11448F9
:1052A00008F0F8FE124808F0E5F8C2B22046611C8A
:1052B000CCB20C490A541EE0FB2C0020A7030020AE
:1052C000F8530020A8030020D42A0020AC030020BB
:1052D00075030020144B0020A5030020A82A0020FD
:1052E000A0600240F42B0020A403002025640000ED
:1052F0007C530020C9E30819FE4908F0C2F8FD48B4
:1053000008F0B8F82044C4B200222046611CCCB298
:10531000F9490A540D222046611CCCB2F6490A54C0
:1053200000222046611CCCB2F3490A54F348B0F97C
:105330001820AFF24801EF4808F0ACFEED4808F045
:1053400099F8C2B22046611CCCB2EB490A54081944
:10535000E84908F096F8E74808F08CF82044C4B211
:1053600000222046611C00E092E0CCB2E2490A54DF
:1053700011222046611CCCB2DF490A54002220468B
:10538000611CCCB2DC490A54DC48B0F91420AFF2FD
:10539000A401D84808F07EFED64808F06BF8C2B2E7
:1053A0002046611CCCB2D4490A540819D14908F0EE
:1053B00068F8D04808F05EF82044C4B200222046C5
:1053C000611CCCB2CC490A5415222046611CCCB2D7
:1053D000C9490A5400222046611CCCB2C6490A546D
:1053E000C648B0F89620AFF2FC01C24808F052FE61
:1053F000C04808F03FF8C2B22046611CCCB2BE499A
:105400000A540819BB4908F03CF8BA4808F032F8C9
:105410002044C4B200222046611CCCB2B6490A54D2
:1054200001222046611CCCB2B3490A540022204616
:10543000611CCCB2B0490A5401222046611CCCB296
:10544000AD490A54AD4802782046611CCCB2AA4945
:105450000A5400222046611CCCB2A7490A540522F6
:105460002046611CCCB2A4490A5400222046611C8B
:10547000CCB2A1490A5401222046611CCCB29E49FB
:105480000A549E4842782046611CCCB29A490A547C
:105490009A4890F8CD0000287ED0984890F8CE0029
:1054A0000028F9D000222046611CCCB292490A544F
:1054B0000A222046611CCCB28F490A5400222046A1
:1054C000611CCCB28C490A548C4890F8CE20AFF2C3
:1054D000E411884808F0DEFD864807F0CBFFC2B231
:1054E0002046611CCCB284490A540819814907F04E
:1054F000C8FF804807F0BEFF2044C4B20022204607
:10550000611CCCB27C490A540E222046611CCCB2EC
:1055100079490A5400222046611CCCB276490A54CB
:105520007648B0F9E420AFF23C21724808F0B2FDB1
:10553000704807F09FFFC2B22046611CCCB26E4992
:105540000A5408196B4907F09CFF6A4807F092FF5C
:105550002044C4B200222046611CCCB266490A54E1
:1055600012222046611CCCB263490A540022204614
:10557000611CCCB260490A546048B0F9E020AFF237
:1055800094215C4808F086FD5A4807F073FFC2B2C8
:105590002046611CCCB200E076E057490A54081955
:1055A000544907F06EFF534807F064FF2044C4B22B
:1055B00000222046611CCCB24F490A5416222046D4
:1055C000611CCCB24C490A5400222046611CCCB26A
:1055D00049490A544948B0F86221AFF2F0214548E0
:1055E00008F058FD434807F045FFC2B22046611C51
:1055F000CCB241490A5408193E4907F042FF3D48E0
:1056000007F038FF2044C4B200222046611CCCB20F
:1056100039490A5402222046611CCCB236490A5448
:1056200000222046611CCCB233490A540122204694
:10563000611CCCB230490A54304890F8CC20204646
:10564000611CCCB22C490A5400222046611CCCB209
:1056500029490A5406222046611CCCB226490A5424
:1056600000222046611CCCB223490A540122204664
:10567000611CCCB220490A54204890F8CD20204625
:10568000611CCCB21C490A541C4890F899010028AE
:105690007ED01A4890F89A010028F9D000222046BE
:1056A000611CCCB214490A540B222046611CCCB2B6
:1056B00011490A5400222046611CCCB20E490A54FA
:1056C0000E4890F89A21AFF2DC310A4808F0E2FC6B
:1056D000084807F0CFFEC2B22046611CCCB2064992
:1056E0000A540819034907F0CCFE024807F0C2FE2D
:1056F000204405E07C530020F42B0020144B0020B4
:10570000C4B200222046611CCCB2FE490A540F22CA
:105710002046611CCCB2FB490A5400222046611C81
:10572000CCB2F8490A54F848B0F9B021AFF244417C
:10573000F64808F0AFFCF54807F09CFEC2B22046E0
:10574000611CCCB2EF490A540819F04907F099FEE0
:10575000EE4807F08FFE2044C4B200222046611CB0
:10576000CCB2E8490A5413222046611CCCB2E54968
:105770000A5400222046611CCCB2E2490A54E24895
:10578000B0F9AC21AFF29C41E04808F083FC00E0A6
:105790007DE0DE4807F06EFEC2B22046611CCCB24E
:1057A000D8490A540819D94907F06BFED74807F0C1
:1057B00061FE2044C4B200222046611CCCB2D14913
:1057C0000A5417222046611CCCB2CE490A5400224A
:1057D0002146601CC4B2CB484254CB48B0F82E22BC
:1057E000AFF2F841C94808F055FCC84807F042FE3E
:1057F000C2B22046611CCCB2C2490A540819C3493E
:1058000007F03FFEC14807F035FE2044C4B2002235
:105810002046611CCCB2BB490A5403222046611CBD
:10582000CCB2B8490A5400222046611CCCB2B5491A
:105830000A5401222046611CCCB2B2490A54B24833
:1058400090F898212046611CCCB2AE490A5400223F
:105850002046611CCCB2AB490A5407222046611C89
:10586000CCB2A8490A5400222046611CCCB2A549FA
:105870000A5401222046611CCCB2A2490A54A24813
:1058800090F899212046611CCCB29E490A549E484A
:1058900090F8650200287DD09B4890F866020028A9
:1058A000F9D000222046611CCCB296490A540C2241
:1058B0002046611CCCB293490A5400222046611C48
:1058C000CCB290490A54904890F86622AFF2E45165
:1058D0008E4808F0DFFB8D4807F0CCFDC2B22046B1
:1058E000611CCCB287490A540819884907F0C9FDE0
:1058F000864807F0BFFD2044C4B200222046611C48
:10590000CCB280490A5410222046611CCCB27D4999
:105910000A5400222046611CCCB27A490A547A48C3
:10592000B0F97C22AFF23C61784808F0B3FB7748CD
:1059300007F0A0FDC2B22046611CCCB271490A54E6
:105940000819724907F09DFD704807F093FD204447
:10595000C4B200222046611CCCB26A490A54142207
:105960002046611CCCB267490A5400222046611CC3
:10597000CCB264490A546448B0F97822AFF2946119
:10598000624808F087FB614807F074FDC2B2204608
:10599000611C00E077E0CCB25A490A5408195B490F
:1059A00007F06FFD594807F065FD2044C4B200229E
:1059B0002046611CCCB253490A5418222046611C6F
:1059C000CCB250490A5400222046611CCCB24D4949
:1059D0000A544D48B0F8FA22AFF2F0614B4808F093
:1059E00059FB4A4807F046FDC2B22046611CCCB2C2
:1059F00044490A540819454907F043FD434807F054
:105A000039FD2044C4B200222146601CC4B23D4886
:105A1000425404222046611CCCB23A490A54002266
:105A20002046611CCCB237490A5401222046611C31
:105A3000CCB234490A54344890F864222046611CA0
:105A4000CCB230490A5400222046611CCCB22D4908
:105A50000A5408222046611CCCB22A490A5400226A
:105A60002046611CCCB227490A5401222046611C01
:105A7000CCB224490A54244890F865222046611C7F
:105A8000CCB220490A5400F074BFEE222046611CBB
:105A9000CCB21C490A54B1222046611CCCB219492F
:105AA0000A5412222046611CCCB216490A54002224
:105AB0002046611CCCB213490A5402222046611CC4
:105AC000CCB210490A54104890F8310300287DD018
:105AD0000D4890F832030028F9D000222046611CBE
